{
  "contractName": "Token",
  "abi": [
    {
      "constant": true,
      "inputs": [],
      "name": "name",
      "outputs": [
        {
          "name": "",
          "type": "string"
        }
      ],
      "payable": false,
      "stateMutability": "view",
      "type": "function"
    },
    {
      "constant": true,
      "inputs": [
        {
          "name": "",
          "type": "address"
        }
      ],
      "name": "balanceOf",
      "outputs": [
        {
          "name": "",
          "type": "uint256"
        }
      ],
      "payable": false,
      "stateMutability": "view",
      "type": "function"
    },
    {
      "constant": true,
      "inputs": [],
      "name": "decimal",
      "outputs": [
        {
          "name": "",
          "type": "uint256"
        }
      ],
      "payable": false,
      "stateMutability": "view",
      "type": "function"
    },
    {
      "constant": true,
      "inputs": [],
      "name": "symbol",
      "outputs": [
        {
          "name": "",
          "type": "string"
        }
      ],
      "payable": false,
      "stateMutability": "view",
      "type": "function"
    },
    {
      "inputs": [],
      "payable": false,
      "stateMutability": "nonpayable",
      "type": "constructor"
    },
    {
      "anonymous": false,
      "inputs": [
        {
          "indexed": false,
          "name": "from",
          "type": "address"
        },
        {
          "indexed": false,
          "name": "to",
          "type": "address"
        },
        {
          "indexed": false,
          "name": "value",
          "type": "uint256"
        }
      ],
      "name": "Transfer",
      "type": "event"
    },
    {
      "constant": true,
      "inputs": [],
      "name": "getTotalSupply",
      "outputs": [
        {
          "name": "",
          "type": "uint256"
        }
      ],
      "payable": false,
      "stateMutability": "view",
      "type": "function"
    },
    {
      "constant": false,
      "inputs": [
        {
          "name": "_to",
          "type": "address"
        },
        {
          "name": "_value",
          "type": "uint256"
        }
      ],
      "name": "transfer",
      "outputs": [
        {
          "name": "success",
          "type": "bool"
        }
      ],
      "payable": false,
      "stateMutability": "nonpayable",
      "type": "function"
    }
  ],
  "bytecode": "0x60806040526040805190810160405280600681526020017f536572656e6500000000000000000000000000000000000000000000000000008152506001908051906020019061004f929190610142565b506040805190810160405280600381526020017f53524e00000000000000000000000000000000000000000000000000000000008152506002908051906020019061009b929190610142565b5060126003553480156100ad57600080fd5b50336000806101000a81548173ffffffffffffffffffffffffffffffffffffffff021916908373ffffffffffffffffffffffffffffffffffffffff160217905550612710600481905550600454600560003373ffffffffffffffffffffffffffffffffffffffff1673ffffffffffffffffffffffffffffffffffffffff168152602001908152602001600020819055506101e7565b828054600181600116156101000203166002900490600052602060002090601f016020900481019282601f1061018357805160ff19168380011785556101b1565b828001600101855582156101b1579182015b828111156101b0578251825591602001919060010190610195565b5b5090506101be91906101c2565b5090565b6101e491905b808211156101e05760008160009055506001016101c8565b5090565b90565b610673806101f66000396000f3fe608060405260043610610078576000357c0100000000000000000000000000000000000000000000000000000000900463ffffffff16806306fdde031461007d57806370a082311461010d57806376809ce31461017257806395d89b411461019d578063a9059cbb1461022d578063c4e41b22146102a0575b600080fd5b34801561008957600080fd5b506100926102cb565b6040518080602001828103825283818151815260200191508051906020019080838360005b838110156100d25780820151818401526020810190506100b7565b50505050905090810190601f1680156100ff5780820380516001836020036101000a031916815260200191505b509250505060405180910390f35b34801561011957600080fd5b5061015c6004803603602081101561013057600080fd5b81019080803573ffffffffffffffffffffffffffffffffffffffff169060200190929190505050610369565b6040518082815260200191505060405180910390f35b34801561017e57600080fd5b50610187610381565b6040518082815260200191505060405180910390f35b3480156101a957600080fd5b506101b2610387565b6040518080602001828103825283818151815260200191508051906020019080838360005b838110156101f25780820151818401526020810190506101d7565b50505050905090810190601f16801561021f5780820380516001836020036101000a031916815260200191505b509250505060405180910390f35b34801561023957600080fd5b506102866004803603604081101561025057600080fd5b81019080803573ffffffffffffffffffffffffffffffffffffffff16906020019092919080359060200190929190505050610425565b604051808215151515815260200191505060405180910390f35b3480156102ac57600080fd5b506102b56105fa565b6040518082815260200191505060405180910390f35b60018054600181600116156101000203166002900480601f0160208091040260200160405190810160405280929190818152602001828054600181600116156101000203166002900480156103615780601f1061033657610100808354040283529160200191610361565b820191906000526020600020905b81548152906001019060200180831161034457829003601f168201915b505050505081565b60056020528060005260406000206000915090505481565b60035481565b60028054600181600116156101000203166002900480601f01602080910402602001604051908101604052809291908181526020018280546001816001161561010002031660029004801561041d5780601f106103f25761010080835404028352916020019161041d565b820191906000526020600020905b81548152906001019060200180831161040057829003601f168201915b505050505081565b600061047982600560003373ffffffffffffffffffffffffffffffffffffffff1673ffffffffffffffffffffffffffffffffffffffff1681526020019081526020016000205461060490919063ffffffff16565b600560003373ffffffffffffffffffffffffffffffffffffffff1673ffffffffffffffffffffffffffffffffffffffff1681526020019081526020016000208190555061050e82600560008673ffffffffffffffffffffffffffffffffffffffff1673ffffffffffffffffffffffffffffffffffffffff1681526020019081526020016000205461062690919063ffffffff16565b600560008573ffffffffffffffffffffffffffffffffffffffff1673ffffffffffffffffffffffffffffffffffffffff168152602001908152602001600020819055507fddf252ad1be2c89b69c2b068fc378daa952ba7f163c4a11628f55a4df523b3ef338484604051808473ffffffffffffffffffffffffffffffffffffffff1673ffffffffffffffffffffffffffffffffffffffff1681526020018373ffffffffffffffffffffffffffffffffffffffff1673ffffffffffffffffffffffffffffffffffffffff168152602001828152602001935050505060405180910390a16001905092915050565b6000600454905090565b600082821115151561061557600080fd5b600082840390508091505092915050565b600080828401905083811015151561063d57600080fd5b809150509291505056fea165627a7a7230582046f760feaf0c36c2b184f94bbdc22adf76e4ac54f62052b7e855b765ba9039d00029",
  "source": "pragma solidity >=0.5.0 <0.7.0;\r\nimport \"../client/node_modules/openzeppelin-solidity/contracts/math/SafeMath.sol\";\r\n\r\ncontract Token {\r\n    using SafeMath for uint256;\r\n    // variables\r\n    address owner;\r\n    string public name = \"Serene\";\r\n    string public symbol = \"SRN\";\r\n    uint256  public decimal = 18;\r\n    uint256 private totalSupply ;\r\n    // events \r\n    event Transfer(address from, address to, uint256 value);\r\n    mapping(address => uint256) public balanceOf;\r\n\r\n    constructor () public {\r\n        owner = msg.sender;\r\n        totalSupply = 10000 ;\r\n        balanceOf[msg.sender] = totalSupply;\r\n    }\r\n\r\n    // modifiers for control\r\n   modifier onlyOwner () {\r\n       require(msg.sender == owner);\r\n       _;\r\n   }\r\n \r\n    function getTotalSupply() external view returns  (uint256){\r\n        return totalSupply;\r\n    }\r\n\r\n    // transfer function for get token by external EOA\r\n    function transfer(address _to, uint256 _value) public returns (bool success){\r\n        // openzeppelin safeMath library used for protect overflow and ensure safe transfer\r\n        balanceOf[msg.sender] = balanceOf[msg.sender].sub(_value);\r\n        balanceOf[_to] = balanceOf[_to].add(_value);\r\n        // amit event after transfer complete\r\n        emit Transfer(msg.sender, _to, _value);\r\n        return true;\r\n    }\r\n}",
  "sourcePath": "C:/projects/token-exchange-dapp/contracts/Token.sol",
  "compiler": {
    "name": "solc",
    "version": "0.5.0+commit.1d4f565a.Emscripten.clang"
  },
  "schemaVersion": "3.0.9",
  "updatedAt": "2021-08-03T12:05:00.161Z",
  "devdoc": {
    "methods": {}
  },
  "userdoc": {
    "methods": {}
  }
}