{
  "contractName": "Token",
  "abi": [
    {
      "constant": true,
      "inputs": [],
      "name": "name",
      "outputs": [
        {
          "name": "",
          "type": "string"
        }
      ],
      "payable": false,
      "stateMutability": "view",
      "type": "function"
    },
    {
      "constant": true,
      "inputs": [],
      "name": "decimal",
      "outputs": [
        {
          "name": "",
          "type": "uint8"
        }
      ],
      "payable": false,
      "stateMutability": "view",
      "type": "function"
    },
    {
      "constant": true,
      "inputs": [],
      "name": "symbol",
      "outputs": [
        {
          "name": "",
          "type": "string"
        }
      ],
      "payable": false,
      "stateMutability": "view",
      "type": "function"
    },
    {
      "inputs": [
        {
          "name": "_totalSupply",
          "type": "uint256"
        }
      ],
      "payable": false,
      "stateMutability": "nonpayable",
      "type": "constructor"
    },
    {
      "constant": true,
      "inputs": [],
      "name": "getTotalSupply",
      "outputs": [
        {
          "name": "",
          "type": "uint256"
        }
      ],
      "payable": false,
      "stateMutability": "view",
      "type": "function"
    }
  ],
  "bytecode": "0x60806040526040805190810160405280600c81526020017f536572656e6520546f6b656e00000000000000000000000000000000000000008152506001908051906020019061004f929190610142565b506040805190810160405280600381526020017f53524e00000000000000000000000000000000000000000000000000000000008152506002908051906020019061009b929190610142565b506012600360006101000a81548160ff021916908360ff1602179055503480156100c457600080fd5b506040516020806105b9833981018060405260208110156100e457600080fd5b810190808051906020019092919050505080600481905550336000806101000a81548173ffffffffffffffffffffffffffffffffffffffff021916908373ffffffffffffffffffffffffffffffffffffffff160217905550506101e7565b828054600181600116156101000203166002900490600052602060002090601f016020900481019282601f1061018357805160ff19168380011785556101b1565b828001600101855582156101b1579182015b828111156101b0578251825591602001919060010190610195565b5b5090506101be91906101c2565b5090565b6101e491905b808211156101e05760008160009055506001016101c8565b5090565b90565b6103c3806101f66000396000f3fe608060405260043610610062576000357c0100000000000000000000000000000000000000000000000000000000900463ffffffff16806306fdde031461006757806376809ce3146100f757806395d89b4114610128578063c4e41b22146101b8575b600080fd5b34801561007357600080fd5b5061007c6101e3565b6040518080602001828103825283818151815260200191508051906020019080838360005b838110156100bc5780820151818401526020810190506100a1565b50505050905090810190601f1680156100e95780820380516001836020036101000a031916815260200191505b509250505060405180910390f35b34801561010357600080fd5b5061010c610281565b604051808260ff1660ff16815260200191505060405180910390f35b34801561013457600080fd5b5061013d610294565b6040518080602001828103825283818151815260200191508051906020019080838360005b8381101561017d578082015181840152602081019050610162565b50505050905090810190601f1680156101aa5780820380516001836020036101000a031916815260200191505b509250505060405180910390f35b3480156101c457600080fd5b506101cd610332565b6040518082815260200191505060405180910390f35b60018054600181600116156101000203166002900480601f0160208091040260200160405190810160405280929190818152602001828054600181600116156101000203166002900480156102795780601f1061024e57610100808354040283529160200191610279565b820191906000526020600020905b81548152906001019060200180831161025c57829003601f168201915b505050505081565b600360009054906101000a900460ff1681565b60028054600181600116156101000203166002900480601f01602080910402602001604051908101604052809291908181526020018280546001816001161561010002031660029004801561032a5780601f106102ff5761010080835404028352916020019161032a565b820191906000526020600020905b81548152906001019060200180831161030d57829003601f168201915b505050505081565b60008060009054906101000a900473ffffffffffffffffffffffffffffffffffffffff1673ffffffffffffffffffffffffffffffffffffffff163373ffffffffffffffffffffffffffffffffffffffff1614151561038f57600080fd5b60045490509056fea165627a7a723058200bc9ef3b48ee1cb35590fced16426462877f7e20865dcc98f64ad3ba0598f7020029",
  "source": "pragma solidity >=0.5.0 <0.7.0;\r\n\r\ncontract Token {\r\n    address owner;\r\n    string public name = \"Serene Token\";\r\n    string public symbol = \"SRN\";\r\n    uint8  public decimal = 18;\r\n    uint256 private totalSupply ;\r\n\r\n    constructor (uint256 _totalSupply) public {\r\n        totalSupply = _totalSupply;\r\n        owner = msg.sender;\r\n    }\r\n\r\n    // modifiers for control\r\n   modifier onlyOwner () {\r\n       require(msg.sender == owner);\r\n       _;\r\n   }\r\n    function getTotalSupply() external view onlyOwner returns  (uint256){\r\n        return totalSupply;\r\n    }\r\n}",
  "sourcePath": "C:/projects/token-exchange-dapp/contracts/Token.sol",
  "compiler": {
    "name": "solc",
    "version": "0.5.0+commit.1d4f565a.Emscripten.clang"
  },
  "schemaVersion": "3.0.9",
  "updatedAt": "2021-08-03T05:21:34.543Z",
  "devdoc": {
    "methods": {}
  },
  "userdoc": {
    "methods": {}
  }
}